{
  "transactions": [
    {
      "hash": "0x02d5a413b61ad69728e4d3cfd98e977cad6d36f34d17c0e217128d4745595d10",
      "transactionType": "CALL",
      "contractName": "LinkToken",
      "contractAddress": "0x779877A7B0D9E8603169DdbD7836e478b4624789",
      "function": "transferAndCall(address,uint256,bytes)",
      "arguments": [
        "0x8103B0A8A00be2DDC778e6e7eaa21791Cd364625",
        "3000000000000000000",
        "0x0000000000000000000000000000000000000000000000000000000000002167"
      ],
      "transaction": {
        "type": "0x02",
        "from": "0xf4372ab0b84ab158712cf84fb8da2654ef2a2897",
        "to": "0x779877a7b0d9e8603169ddbd7836e478b4624789",
        "gas": "0x1b43f",
        "value": "0x0",
        "data": "0x4000aea00000000000000000000000008103b0a8a00be2ddc778e6e7eaa21791cd36462500000000000000000000000000000000000000000000000029a2241af62c0000000000000000000000000000000000000000000000000000000000000000006000000000000000000000000000000000000000000000000000000000000000200000000000000000000000000000000000000000000000000000000000002167",
        "nonce": "0x9d",
        "accessList": []
      },
      "additionalContracts": [],
      "isFixedGasLimit": false
    }
  ],
  "receipts": [
    {
      "transactionHash": "0x02d5a413b61ad69728e4d3cfd98e977cad6d36f34d17c0e217128d4745595d10",
      "transactionIndex": "0xb",
      "blockHash": "0xaf926c1d0f20da849d77a7c3305bc333c0841cc8d6a6a3d990829d53c8249fae",
      "blockNumber": "0x539d59",
      "from": "0xF4372AB0b84aB158712cF84FB8Da2654ef2a2897",
      "to": "0x779877A7B0D9E8603169DdbD7836e478b4624789",
      "cumulativeGasUsed": "0xa2027",
      "gasUsed": "0x12a4a",
      "contractAddress": null,
      "logs": [
        {
          "address": "0x779877A7B0D9E8603169DdbD7836e478b4624789",
          "topics": [
            "0xddf252ad1be2c89b69c2b068fc378daa952ba7f163c4a11628f55a4df523b3ef",
            "0x000000000000000000000000f4372ab0b84ab158712cf84fb8da2654ef2a2897",
            "0x0000000000000000000000008103b0a8a00be2ddc778e6e7eaa21791cd364625"
          ],
          "data": "0x00000000000000000000000000000000000000000000000029a2241af62c0000",
          "blockHash": "0xaf926c1d0f20da849d77a7c3305bc333c0841cc8d6a6a3d990829d53c8249fae",
          "blockNumber": "0x539d59",
          "transactionHash": "0x02d5a413b61ad69728e4d3cfd98e977cad6d36f34d17c0e217128d4745595d10",
          "transactionIndex": "0xb",
          "logIndex": "0x6",
          "removed": false
        },
        {
          "address": "0x779877A7B0D9E8603169DdbD7836e478b4624789",
          "topics": [
            "0xe19260aff97b920c7df27010903aeb9c8d2be5d310a2c67824cf3f15396e4c16",
            "0x000000000000000000000000f4372ab0b84ab158712cf84fb8da2654ef2a2897",
            "0x0000000000000000000000008103b0a8a00be2ddc778e6e7eaa21791cd364625"
          ],
          "data": "0x00000000000000000000000000000000000000000000000029a2241af62c0000000000000000000000000000000000000000000000000000000000000000004000000000000000000000000000000000000000000000000000000000000000200000000000000000000000000000000000000000000000000000000000002167",
          "blockHash": "0xaf926c1d0f20da849d77a7c3305bc333c0841cc8d6a6a3d990829d53c8249fae",
          "blockNumber": "0x539d59",
          "transactionHash": "0x02d5a413b61ad69728e4d3cfd98e977cad6d36f34d17c0e217128d4745595d10",
          "transactionIndex": "0xb",
          "logIndex": "0x7",
          "removed": false
        },
        {
          "address": "0x8103B0A8A00be2DDC778e6e7eaa21791Cd364625",
          "topics": [
            "0xd39ec07f4e209f627a4c427971473820dc129761ba28de8906bd56f57101d4f8",
            "0x0000000000000000000000000000000000000000000000000000000000002167"
          ],
          "data": "0x000000000000000000000000000000000000000000000000000000000000000000000000000000000000000000000000000000000000000029a2241af62c0000",
          "blockHash": "0xaf926c1d0f20da849d77a7c3305bc333c0841cc8d6a6a3d990829d53c8249fae",
          "blockNumber": "0x539d59",
          "transactionHash": "0x02d5a413b61ad69728e4d3cfd98e977cad6d36f34d17c0e217128d4745595d10",
          "transactionIndex": "0xb",
          "logIndex": "0x8",
          "removed": false
        }
      ],
      "status": "0x1",
      "logsBloom": "0x0000001400000000000000080000000000000000000000020000000002000000002000000000800000000000000000000000000000000000000000008000000000000000000000000000000800000000000000000000000000002000000000000000000000000000000000000800000000000000400000000000001000000000000000000c000020000000000000c00010000020000000001000000000000000000000000000000000000000000000000000000000000000000400000000000000000002000000000000000000000000000000000000000100000000000000000000000000000000000000000000000000000000000000000000000000000000",
      "type": "0x2",
      "effectiveGasPrice": "0x2a58800b5"
    }
  ],
  "libraries": [],
  "pending": [],
  "returns": {},
  "timestamp": 1710364149,
  "chain": 11155111,
  "commit": "0934198"
}